{
  "_format": "hh-sol-artifact-1",
  "contractName": "CEther",
  "sourceName": "contracts/CEther.sol",
  "abi": [
    {
      "inputs": [
        {
          "internalType": "contract ComptrollerInterface",
          "name": "comptroller_",
          "type": "address"
        },
        {
          "internalType": "contract InterestRateModel",
          "name": "interestRateModel_",
          "type": "address"
        },
        {
          "internalType": "uint256",
          "name": "initialExchangeRateMantissa_",
          "type": "uint256"
        },
        {
          "internalType": "string",
          "name": "name_",
          "type": "string"
        },
        {
          "internalType": "string",
          "name": "symbol_",
          "type": "string"
        },
        {
          "internalType": "uint8",
          "name": "decimals_",
          "type": "uint8"
        },
        {
          "internalType": "address payable",
          "name": "admin_",
          "type": "address"
        }
      ],
      "stateMutability": "nonpayable",
      "type": "constructor"
    },
    {
      "inputs": [],
      "name": "AcceptAdminPendingAdminCheck",
      "type": "error"
    },
    {
      "inputs": [
        {
          "internalType": "uint256",
          "name": "actualAddAmount",
          "type": "uint256"
        }
      ],
      "name": "AddReservesFactorFreshCheck",
      "type": "error"
    },
    {
      "inputs": [],
      "name": "BorrowCashNotAvailable",
      "type": "error"
    },
    {
      "inputs": [
        {
          "internalType": "uint256",
          "name": "errorCode",
          "type": "uint256"
        }
      ],
      "name": "BorrowComptrollerRejection",
      "type": "error"
    },
    {
      "inputs": [],
      "name": "BorrowFreshnessCheck",
      "type": "error"
    },
    {
      "inputs": [
        {
          "internalType": "uint256",
          "name": "errorCode",
          "type": "uint256"
        }
      ],
      "name": "LiquidateAccrueBorrowInterestFailed",
      "type": "error"
    },
    {
      "inputs": [
        {
          "internalType": "uint256",
          "name": "errorCode",
          "type": "uint256"
        }
      ],
      "name": "LiquidateAccrueCollateralInterestFailed",
      "type": "error"
    },
    {
      "inputs": [],
      "name": "LiquidateCloseAmountIsUintMax",
      "type": "error"
    },
    {
      "inputs": [],
      "name": "LiquidateCloseAmountIsZero",
      "type": "error"
    },
    {
      "inputs": [],
      "name": "LiquidateCollateralFreshnessCheck",
      "type": "error"
    },
    {
      "inputs": [
        {
          "internalType": "uint256",
          "name": "errorCode",
          "type": "uint256"
        }
      ],
      "name": "LiquidateComptrollerRejection",
      "type": "error"
    },
    {
      "inputs": [],
      "name": "LiquidateFreshnessCheck",
      "type": "error"
    },
    {
      "inputs": [],
      "name": "LiquidateLiquidatorIsBorrower",
      "type": "error"
    },
    {
      "inputs": [
        {
          "internalType": "uint256",
          "name": "errorCode",
          "type": "uint256"
        }
      ],
      "name": "LiquidateRepayBorrowFreshFailed",
      "type": "error"
    },
    {
      "inputs": [
        {
          "internalType": "uint256",
          "name": "errorCode",
          "type": "uint256"
        }
      ],
      "name": "LiquidateSeizeComptrollerRejection",
      "type": "error"
    },
    {
      "inputs": [],
      "name": "LiquidateSeizeLiquidatorIsBorrower",
      "type": "error"
    },
    {
      "inputs": [
        {
          "internalType": "uint256",
          "name": "errorCode",
          "type": "uint256"
        }
      ],
      "name": "MintComptrollerRejection",
      "type": "error"
    },
    {
      "inputs": [],
      "name": "MintFreshnessCheck",
      "type": "error"
    },
    {
      "inputs": [
        {
          "internalType": "uint256",
          "name": "errorCode",
          "type": "uint256"
        }
      ],
      "name": "RedeemComptrollerRejection",
      "type": "error"
    },
    {
      "inputs": [],
      "name": "RedeemFreshnessCheck",
      "type": "error"
    },
    {
      "inputs": [],
      "name": "RedeemTransferOutNotPossible",
      "type": "error"
    },
    {
      "inputs": [],
      "name": "ReduceReservesAdminCheck",
      "type": "error"
    },
    {
      "inputs": [],
      "name": "ReduceReservesCashNotAvailable",
      "type": "error"
    },
    {
      "inputs": [],
      "name": "ReduceReservesCashValidation",
      "type": "error"
    },
    {
      "inputs": [],
      "name": "ReduceReservesFreshCheck",
      "type": "error"
    },
    {
      "inputs": [
        {
          "internalType": "uint256",
          "name": "errorCode",
          "type": "uint256"
        }
      ],
      "name": "RepayBorrowComptrollerRejection",
      "type": "error"
    },
    {
      "inputs": [],
      "name": "RepayBorrowFreshnessCheck",
      "type": "error"
    },
    {
      "inputs": [],
      "name": "SetComptrollerOwnerCheck",
      "type": "error"
    },
    {
      "inputs": [],
      "name": "SetInterestRateModelFreshCheck",
      "type": "error"
    },
    {
      "inputs": [],
      "name": "SetInterestRateModelOwnerCheck",
      "type": "error"
    },
    {
      "inputs": [],
      "name": "SetPendingAdminOwnerCheck",
      "type": "error"
    },
    {
      "inputs": [],
      "name": "SetReserveFactorAdminCheck",
      "type": "error"
    },
    {
      "inputs": [],
      "name": "SetReserveFactorBoundsCheck",
      "type": "error"
    },
    {
      "inputs": [],
      "name": "SetReserveFactorFreshCheck",
      "type": "error"
    },
    {
      "inputs": [],
      "name": "SetRewardRouterAddressOwnerCheck",
      "type": "error"
    },
    {
      "inputs": [],
      "name": "SetStakedGlpAddressOwnerCheck",
      "type": "error"
    },
    {
      "inputs": [],
      "name": "SignalTransferOwnerCheck",
      "type": "error"
    },
    {
      "inputs": [
        {
          "internalType": "uint256",
          "name": "errorCode",
          "type": "uint256"
        }
      ],
      "name": "TransferComptrollerRejection",
      "type": "error"
    },
    {
      "inputs": [],
      "name": "TransferNotAllowed",
      "type": "error"
    },
    {
      "inputs": [],
      "name": "TransferNotEnough",
      "type": "error"
    },
    {
      "inputs": [],
      "name": "TransferTooMuch",
      "type": "error"
    },
    {
      "anonymous": false,
      "inputs": [
        {
          "indexed": false,
          "internalType": "uint256",
          "name": "cashPrior",
          "type": "uint256"
        },
        {
          "indexed": false,
          "internalType": "uint256",
          "name": "interestAccumulated",
          "type": "uint256"
        },
        {
          "indexed": false,
          "internalType": "uint256",
          "name": "borrowIndex",
          "type": "uint256"
        },
        {
          "indexed": false,
          "internalType": "uint256",
          "name": "totalBorrows",
          "type": "uint256"
        }
      ],
      "name": "AccrueInterest",
      "type": "event"
    },
    {
      "anonymous": false,
      "inputs": [
        {
          "indexed": true,
          "internalType": "address",
          "name": "owner",
          "type": "address"
        },
        {
          "indexed": true,
          "internalType": "address",
          "name": "spender",
          "type": "address"
        },
        {
          "indexed": false,
          "internalType": "uint256",
          "name": "amount",
          "type": "uint256"
        }
      ],
      "name": "Approval",
      "type": "event"
    },
    {
      "anonymous": false,
      "inputs": [
        {
          "indexed": false,
          "internalType": "address",
          "name": "borrower",
          "type": "address"
        },
        {
          "indexed": false,
          "internalType": "uint256",
          "name": "borrowAmount",
          "type": "uint256"
        },
        {
          "indexed": false,
          "internalType": "uint256",
          "name": "accountBorrows",
          "type": "uint256"
        },
        {
          "indexed": false,
          "internalType": "uint256",
          "name": "totalBorrows",
          "type": "uint256"
        }
      ],
      "name": "Borrow",
      "type": "event"
    },
    {
      "anonymous": false,
      "inputs": [
        {
          "indexed": false,
          "internalType": "address",
          "name": "liquidator",
          "type": "address"
        },
        {
          "indexed": false,
          "internalType": "address",
          "name": "borrower",
          "type": "address"
        },
        {
          "indexed": false,
          "internalType": "uint256",
          "name": "repayAmount",
          "type": "uint256"
        },
        {
          "indexed": false,
          "internalType": "address",
          "name": "cTokenCollateral",
          "type": "address"
        },
        {
          "indexed": false,
          "internalType": "uint256",
          "name": "seizeTokens",
          "type": "uint256"
        }
      ],
      "name": "LiquidateBorrow",
      "type": "event"
    },
    {
      "anonymous": false,
      "inputs": [
        {
          "indexed": false,
          "internalType": "address",
          "name": "minter",
          "type": "address"
        },
        {
          "indexed": false,
          "internalType": "uint256",
          "name": "mintAmount",
          "type": "uint256"
        },
        {
          "indexed": false,
          "internalType": "uint256",
          "name": "mintTokens",
          "type": "uint256"
        }
      ],
      "name": "Mint",
      "type": "event"
    },
    {
      "anonymous": false,
      "inputs": [
        {
          "indexed": false,
          "internalType": "address",
          "name": "oldAdmin",
          "type": "address"
        },
        {
          "indexed": false,
          "internalType": "address",
          "name": "newAdmin",
          "type": "address"
        }
      ],
      "name": "NewAdmin",
      "type": "event"
    },
    {
      "anonymous": false,
      "inputs": [
        {
          "indexed": false,
          "internalType": "contract ComptrollerInterface",
          "name": "oldComptroller",
          "type": "address"
        },
        {
          "indexed": false,
          "internalType": "contract ComptrollerInterface",
          "name": "newComptroller",
          "type": "address"
        }
      ],
      "name": "NewComptroller",
      "type": "event"
    },
    {
      "anonymous": false,
      "inputs": [
        {
          "indexed": false,
          "internalType": "contract InterestRateModel",
          "name": "oldInterestRateModel",
          "type": "address"
        },
        {
          "indexed": false,
          "internalType": "contract InterestRateModel",
          "name": "newInterestRateModel",
          "type": "address"
        }
      ],
      "name": "NewMarketInterestRateModel",
      "type": "event"
    },
    {
      "anonymous": false,
      "inputs": [
        {
          "indexed": false,
          "internalType": "address",
          "name": "oldPendingAdmin",
          "type": "address"
        },
        {
          "indexed": false,
          "internalType": "address",
          "name": "newPendingAdmin",
          "type": "address"
        }
      ],
      "name": "NewPendingAdmin",
      "type": "event"
    },
    {
      "anonymous": false,
      "inputs": [
        {
          "indexed": false,
          "internalType": "uint256",
          "name": "oldReserveFactorMantissa",
          "type": "uint256"
        },
        {
          "indexed": false,
          "internalType": "uint256",
          "name": "newReserveFactorMantissa",
          "type": "uint256"
        }
      ],
      "name": "NewReserveFactor",
      "type": "event"
    },
    {
      "anonymous": false,
      "inputs": [
        {
          "indexed": false,
          "internalType": "address",
          "name": "redeemer",
          "type": "address"
        },
        {
          "indexed": false,
          "internalType": "uint256",
          "name": "redeemAmount",
          "type": "uint256"
        },
        {
          "indexed": false,
          "internalType": "uint256",
          "name": "redeemTokens",
          "type": "uint256"
        }
      ],
      "name": "Redeem",
      "type": "event"
    },
    {
      "anonymous": false,
      "inputs": [
        {
          "indexed": false,
          "internalType": "address",
          "name": "payer",
          "type": "address"
        },
        {
          "indexed": false,
          "internalType": "address",
          "name": "borrower",
          "type": "address"
        },
        {
          "indexed": false,
          "internalType": "uint256",
          "name": "repayAmount",
          "type": "uint256"
        },
        {
          "indexed": false,
          "internalType": "uint256",
          "name": "accountBorrows",
          "type": "uint256"
        },
        {
          "indexed": false,
          "internalType": "uint256",
          "name": "totalBorrows",
          "type": "uint256"
        }
      ],
      "name": "RepayBorrow",
      "type": "event"
    },
    {
      "anonymous": false,
      "inputs": [
        {
          "indexed": false,
          "internalType": "address",
          "name": "benefactor",
          "type": "address"
        },
        {
          "indexed": false,
          "internalType": "uint256",
          "name": "addAmount",
          "type": "uint256"
        },
        {
          "indexed": false,
          "internalType": "uint256",
          "name": "newTotalReserves",
          "type": "uint256"
        }
      ],
      "name": "ReservesAdded",
      "type": "event"
    },
    {
      "anonymous": false,
      "inputs": [
        {
          "indexed": false,
          "internalType": "address",
          "name": "admin",
          "type": "address"
        },
        {
          "indexed": false,
          "internalType": "uint256",
          "name": "reduceAmount",
          "type": "uint256"
        },
        {
          "indexed": false,
          "internalType": "uint256",
          "name": "newTotalReserves",
          "type": "uint256"
        }
      ],
      "name": "ReservesReduced",
      "type": "event"
    },
    {
      "anonymous": false,
      "inputs": [
        {
          "indexed": true,
          "internalType": "address",
          "name": "from",
          "type": "address"
        },
        {
          "indexed": true,
          "internalType": "address",
          "name": "to",
          "type": "address"
        },
        {
          "indexed": false,
          "internalType": "uint256",
          "name": "amount",
          "type": "uint256"
        }
      ],
      "name": "Transfer",
      "type": "event"
    },
    {
      "inputs": [],
      "name": "NO_ERROR",
      "outputs": [
        {
          "internalType": "uint256",
          "name": "",
          "type": "uint256"
        }
      ],
      "stateMutability": "view",
      "type": "function"
    },
    {
      "inputs": [],
      "name": "_acceptAdmin",
      "outputs": [
        {
          "internalType": "uint256",
          "name": "",
          "type": "uint256"
        }
      ],
      "stateMutability": "nonpayable",
      "type": "function"
    },
    {
      "inputs": [],
      "name": "_addReserves",
      "outputs": [
        {
          "internalType": "uint256",
          "name": "",
          "type": "uint256"
        }
      ],
      "stateMutability": "payable",
      "type": "function"
    },
    {
      "inputs": [
        {
          "internalType": "uint256",
          "name": "reduceAmount",
          "type": "uint256"
        }
      ],
      "name": "_reduceReserves",
      "outputs": [
        {
          "internalType": "uint256",
          "name": "",
          "type": "uint256"
        }
      ],
      "stateMutability": "nonpayable",
      "type": "function"
    },
    {
      "inputs": [
        {
          "internalType": "contract ComptrollerInterface",
          "name": "newComptroller",
          "type": "address"
        }
      ],
      "name": "_setComptroller",
      "outputs": [
        {
          "internalType": "uint256",
          "name": "",
          "type": "uint256"
        }
      ],
      "stateMutability": "nonpayable",
      "type": "function"
    },
    {
      "inputs": [
        {
          "internalType": "contract InterestRateModel",
          "name": "newInterestRateModel",
          "type": "address"
        }
      ],
      "name": "_setInterestRateModel",
      "outputs": [
        {
          "internalType": "uint256",
          "name": "",
          "type": "uint256"
        }
      ],
      "stateMutability": "nonpayable",
      "type": "function"
    },
    {
      "inputs": [
        {
          "internalType": "address payable",
          "name": "newPendingAdmin",
          "type": "address"
        }
      ],
      "name": "_setPendingAdmin",
      "outputs": [
        {
          "internalType": "uint256",
          "name": "",
          "type": "uint256"
        }
      ],
      "stateMutability": "nonpayable",
      "type": "function"
    },
    {
      "inputs": [
        {
          "internalType": "uint256",
          "name": "newReserveFactorMantissa",
          "type": "uint256"
        }
      ],
      "name": "_setReserveFactor",
      "outputs": [
        {
          "internalType": "uint256",
          "name": "",
          "type": "uint256"
        }
      ],
      "stateMutability": "nonpayable",
      "type": "function"
    },
    {
      "inputs": [
        {
          "internalType": "contract IGmxRewardRouter",
          "name": "glpRewardRouter_",
          "type": "address"
        }
      ],
      "name": "_setRewardRouterAddress",
      "outputs": [
        {
          "internalType": "uint256",
          "name": "",
          "type": "uint256"
        }
      ],
      "stateMutability": "nonpayable",
      "type": "function"
    },
    {
      "inputs": [
        {
          "internalType": "contract IStakedGlp",
          "name": "stakedGLP_",
          "type": "address"
        }
      ],
      "name": "_setStakedGlpAddress",
      "outputs": [
        {
          "internalType": "uint256",
          "name": "",
          "type": "uint256"
        }
      ],
      "stateMutability": "nonpayable",
      "type": "function"
    },
    {
      "inputs": [
        {
          "internalType": "address",
          "name": "recipient",
          "type": "address"
        }
      ],
      "name": "_signalTransfer",
      "outputs": [
        {
          "internalType": "uint256",
          "name": "",
          "type": "uint256"
        }
      ],
      "stateMutability": "nonpayable",
      "type": "function"
    },
    {
      "inputs": [],
      "name": "accrualBlockNumber",
      "outputs": [
        {
          "internalType": "uint256",
          "name": "",
          "type": "uint256"
        }
      ],
      "stateMutability": "view",
      "type": "function"
    },
    {
      "inputs": [],
      "name": "accrueInterest",
      "outputs": [
        {
          "internalType": "uint256",
          "name": "",
          "type": "uint256"
        }
      ],
      "stateMutability": "nonpayable",
      "type": "function"
    },
    {
      "inputs": [],
      "name": "admin",
      "outputs": [
        {
          "internalType": "address payable",
          "name": "",
          "type": "address"
        }
      ],
      "stateMutability": "view",
      "type": "function"
    },
    {
      "inputs": [
        {
          "internalType": "address",
          "name": "owner",
          "type": "address"
        },
        {
          "internalType": "address",
          "name": "spender",
          "type": "address"
        }
      ],
      "name": "allowance",
      "outputs": [
        {
          "internalType": "uint256",
          "name": "",
          "type": "uint256"
        }
      ],
      "stateMutability": "view",
      "type": "function"
    },
    {
      "inputs": [
        {
          "internalType": "address",
          "name": "spender",
          "type": "address"
        },
        {
          "internalType": "uint256",
          "name": "amount",
          "type": "uint256"
        }
      ],
      "name": "approve",
      "outputs": [
        {
          "internalType": "bool",
          "name": "",
          "type": "bool"
        }
      ],
      "stateMutability": "nonpayable",
      "type": "function"
    },
    {
      "inputs": [
        {
          "internalType": "address",
          "name": "owner",
          "type": "address"
        }
      ],
      "name": "balanceOf",
      "outputs": [
        {
          "internalType": "uint256",
          "name": "",
          "type": "uint256"
        }
      ],
      "stateMutability": "view",
      "type": "function"
    },
    {
      "inputs": [
        {
          "internalType": "address",
          "name": "owner",
          "type": "address"
        }
      ],
      "name": "balanceOfUnderlying",
      "outputs": [
        {
          "internalType": "uint256",
          "name": "",
          "type": "uint256"
        }
      ],
      "stateMutability": "nonpayable",
      "type": "function"
    },
    {
      "inputs": [
        {
          "internalType": "uint256",
          "name": "borrowAmount",
          "type": "uint256"
        }
      ],
      "name": "borrow",
      "outputs": [
        {
          "internalType": "uint256",
          "name": "",
          "type": "uint256"
        }
      ],
      "stateMutability": "nonpayable",
      "type": "function"
    },
    {
      "inputs": [
        {
          "internalType": "address",
          "name": "account",
          "type": "address"
        }
      ],
      "name": "borrowBalanceCurrent",
      "outputs": [
        {
          "internalType": "uint256",
          "name": "",
          "type": "uint256"
        }
      ],
      "stateMutability": "nonpayable",
      "type": "function"
    },
    {
      "inputs": [
        {
          "internalType": "address",
          "name": "account",
          "type": "address"
        }
      ],
      "name": "borrowBalanceStored",
      "outputs": [
        {
          "internalType": "uint256",
          "name": "",
          "type": "uint256"
        }
      ],
      "stateMutability": "view",
      "type": "function"
    },
    {
      "inputs": [],
      "name": "borrowIndex",
      "outputs": [
        {
          "internalType": "uint256",
          "name": "",
          "type": "uint256"
        }
      ],
      "stateMutability": "view",
      "type": "function"
    },
    {
      "inputs": [],
      "name": "borrowRatePerBlock",
      "outputs": [
        {
          "internalType": "uint256",
          "name": "",
          "type": "uint256"
        }
      ],
      "stateMutability": "view",
      "type": "function"
    },
    {
      "inputs": [],
      "name": "comptroller",
      "outputs": [
        {
          "internalType": "contract ComptrollerInterface",
          "name": "",
          "type": "address"
        }
      ],
      "stateMutability": "view",
      "type": "function"
    },
    {
      "inputs": [],
      "name": "decimals",
      "outputs": [
        {
          "internalType": "uint8",
          "name": "",
          "type": "uint8"
        }
      ],
      "stateMutability": "view",
      "type": "function"
    },
    {
      "inputs": [],
      "name": "exchangeRateCurrent",
      "outputs": [
        {
          "internalType": "uint256",
          "name": "",
          "type": "uint256"
        }
      ],
      "stateMutability": "nonpayable",
      "type": "function"
    },
    {
      "inputs": [],
      "name": "exchangeRateStored",
      "outputs": [
        {
          "internalType": "uint256",
          "name": "",
          "type": "uint256"
        }
      ],
      "stateMutability": "view",
      "type": "function"
    },
    {
      "inputs": [
        {
          "internalType": "address",
          "name": "account",
          "type": "address"
        }
      ],
      "name": "getAccountSnapshot",
      "outputs": [
        {
          "internalType": "uint256",
          "name": "",
          "type": "uint256"
        },
        {
          "internalType": "uint256",
          "name": "",
          "type": "uint256"
        },
        {
          "internalType": "uint256",
          "name": "",
          "type": "uint256"
        },
        {
          "internalType": "uint256",
          "name": "",
          "type": "uint256"
        }
      ],
      "stateMutability": "view",
      "type": "function"
    },
    {
      "inputs": [],
      "name": "getCash",
      "outputs": [
        {
          "internalType": "uint256",
          "name": "",
          "type": "uint256"
        }
      ],
      "stateMutability": "view",
      "type": "function"
    },
    {
      "inputs": [],
      "name": "glpRewardRouter",
      "outputs": [
        {
          "internalType": "contract IGmxRewardRouter",
          "name": "",
          "type": "address"
        }
      ],
      "stateMutability": "view",
      "type": "function"
    },
    {
      "inputs": [
        {
          "internalType": "contract ComptrollerInterface",
          "name": "comptroller_",
          "type": "address"
        },
        {
          "internalType": "contract InterestRateModel",
          "name": "interestRateModel_",
          "type": "address"
        },
        {
          "internalType": "uint256",
          "name": "initialExchangeRateMantissa_",
          "type": "uint256"
        },
        {
          "internalType": "string",
          "name": "name_",
          "type": "string"
        },
        {
          "internalType": "string",
          "name": "symbol_",
          "type": "string"
        },
        {
          "internalType": "uint8",
          "name": "decimals_",
          "type": "uint8"
        },
        {
          "internalType": "bool",
          "name": "isGLP_",
          "type": "bool"
        }
      ],
      "name": "initialize",
      "outputs": [],
      "stateMutability": "nonpayable",
      "type": "function"
    },
    {
      "inputs": [],
      "name": "interestRateModel",
      "outputs": [
        {
          "internalType": "contract InterestRateModel",
          "name": "",
          "type": "address"
        }
      ],
      "stateMutability": "view",
      "type": "function"
    },
    {
      "inputs": [],
      "name": "isCToken",
      "outputs": [
        {
          "internalType": "bool",
          "name": "",
          "type": "bool"
        }
      ],
      "stateMutability": "view",
      "type": "function"
    },
    {
      "inputs": [],
      "name": "isGLP",
      "outputs": [
        {
          "internalType": "bool",
          "name": "",
          "type": "bool"
        }
      ],
      "stateMutability": "view",
      "type": "function"
    },
    {
      "inputs": [
        {
          "internalType": "address",
          "name": "borrower",
          "type": "address"
        },
        {
          "internalType": "contract CToken",
          "name": "cTokenCollateral",
          "type": "address"
        }
      ],
      "name": "liquidateBorrow",
      "outputs": [],
      "stateMutability": "payable",
      "type": "function"
    },
    {
      "inputs": [],
      "name": "mint",
      "outputs": [],
      "stateMutability": "payable",
      "type": "function"
    },
    {
      "inputs": [],
      "name": "name",
      "outputs": [
        {
          "internalType": "string",
          "name": "",
          "type": "string"
        }
      ],
      "stateMutability": "view",
      "type": "function"
    },
    {
      "inputs": [],
      "name": "pendingAdmin",
      "outputs": [
        {
          "internalType": "address payable",
          "name": "",
          "type": "address"
        }
      ],
      "stateMutability": "view",
      "type": "function"
    },
    {
      "inputs": [],
      "name": "protocolSeizeShareMantissa",
      "outputs": [
        {
          "internalType": "uint256",
          "name": "",
          "type": "uint256"
        }
      ],
      "stateMutability": "view",
      "type": "function"
    },
    {
      "inputs": [
        {
          "internalType": "uint256",
          "name": "redeemTokens",
          "type": "uint256"
        }
      ],
      "name": "redeem",
      "outputs": [
        {
          "internalType": "uint256",
          "name": "",
          "type": "uint256"
        }
      ],
      "stateMutability": "nonpayable",
      "type": "function"
    },
    {
      "inputs": [
        {
          "internalType": "uint256",
          "name": "redeemAmount",
          "type": "uint256"
        }
      ],
      "name": "redeemUnderlying",
      "outputs": [
        {
          "internalType": "uint256",
          "name": "",
          "type": "uint256"
        }
      ],
      "stateMutability": "nonpayable",
      "type": "function"
    },
    {
      "inputs": [],
      "name": "repayBorrow",
      "outputs": [],
      "stateMutability": "payable",
      "type": "function"
    },
    {
      "inputs": [
        {
          "internalType": "address",
          "name": "borrower",
          "type": "address"
        }
      ],
      "name": "repayBorrowBehalf",
      "outputs": [],
      "stateMutability": "payable",
      "type": "function"
    },
    {
      "inputs": [],
      "name": "reserveFactorMantissa",
      "outputs": [
        {
          "internalType": "uint256",
          "name": "",
          "type": "uint256"
        }
      ],
      "stateMutability": "view",
      "type": "function"
    },
    {
      "inputs": [
        {
          "internalType": "address",
          "name": "liquidator",
          "type": "address"
        },
        {
          "internalType": "address",
          "name": "borrower",
          "type": "address"
        },
        {
          "internalType": "uint256",
          "name": "seizeTokens",
          "type": "uint256"
        }
      ],
      "name": "seize",
      "outputs": [
        {
          "internalType": "uint256",
          "name": "",
          "type": "uint256"
        }
      ],
      "stateMutability": "nonpayable",
      "type": "function"
    },
    {
      "inputs": [],
      "name": "stakedGLP",
      "outputs": [
        {
          "internalType": "contract IStakedGlp",
          "name": "",
          "type": "address"
        }
      ],
      "stateMutability": "view",
      "type": "function"
    },
    {
      "inputs": [],
      "name": "supplyRatePerBlock",
      "outputs": [
        {
          "internalType": "uint256",
          "name": "",
          "type": "uint256"
        }
      ],
      "stateMutability": "view",
      "type": "function"
    },
    {
      "inputs": [],
      "name": "symbol",
      "outputs": [
        {
          "internalType": "string",
          "name": "",
          "type": "string"
        }
      ],
      "stateMutability": "view",
      "type": "function"
    },
    {
      "inputs": [],
      "name": "totalBorrows",
      "outputs": [
        {
          "internalType": "uint256",
          "name": "",
          "type": "uint256"
        }
      ],
      "stateMutability": "view",
      "type": "function"
    },
    {
      "inputs": [],
      "name": "totalBorrowsCurrent",
      "outputs": [
        {
          "internalType": "uint256",
          "name": "",
          "type": "uint256"
        }
      ],
      "stateMutability": "nonpayable",
      "type": "function"
    },
    {
      "inputs": [],
      "name": "totalReserves",
      "outputs": [
        {
          "internalType": "uint256",
          "name": "",
          "type": "uint256"
        }
      ],
      "stateMutability": "view",
      "type": "function"
    },
    {
      "inputs": [],
      "name": "totalSupply",
      "outputs": [
        {
          "internalType": "uint256",
          "name": "",
          "type": "uint256"
        }
      ],
      "stateMutability": "view",
      "type": "function"
    },
    {
      "inputs": [
        {
          "internalType": "address",
          "name": "dst",
          "type": "address"
        },
        {
          "internalType": "uint256",
          "name": "amount",
          "type": "uint256"
        }
      ],
      "name": "transfer",
      "outputs": [
        {
          "internalType": "bool",
          "name": "",
          "type": "bool"
        }
      ],
      "stateMutability": "nonpayable",
      "type": "function"
    },
    {
      "inputs": [
        {
          "internalType": "address",
          "name": "src",
          "type": "address"
        },
        {
          "internalType": "address",
          "name": "dst",
          "type": "address"
        },
        {
          "internalType": "uint256",
          "name": "amount",
          "type": "uint256"
        }
      ],
      "name": "transferFrom",
      "outputs": [
        {
          "internalType": "bool",
          "name": "",
          "type": "bool"
        }
      ],
      "stateMutability": "nonpayable",
      "type": "function"
    },
    {
      "stateMutability": "payable",
      "type": "receive"
    }
  ],
  "bytecode": "0x60806040523480156200001157600080fd5b50604051620040de380380620040de833981016040819052620000349162000784565b60048054610100600160a81b03191633610100021790556200005d878787878787600062000090565b600480546001600160a01b0390921661010002610100600160a81b031990921691909117905550620008b7945050505050565b60045461010090046001600160a01b03163314620001015760405162461bcd60e51b8152602060048201526024808201527f6f6e6c792061646d696e206d617920696e697469616c697a6520746865206d616044820152631c9ad95d60e21b60648201526084015b60405180910390fd5b600a54158015620001125750600b54155b6200016c5760405162461bcd60e51b815260206004820152602360248201527f6d61726b6574206d6179206f6e6c7920626520696e697469616c697a6564206f6044820152626e636560e81b6064820152608401620000f8565b600885905584620001d95760405162461bcd60e51b815260206004820152603060248201527f696e697469616c2065786368616e67652072617465206d75737420626520677260448201526f32b0ba32b9103a3430b7103d32b9379760811b6064820152608401620000f8565b6000620001e68862000311565b90508015620002385760405162461bcd60e51b815260206004820152601a60248201527f73657474696e6720636f6d7074726f6c6c6572206661696c65640000000000006044820152606401620000f8565b43600a55670de0b6b3a7640000600b55620002538762000469565b90508015620002b05760405162461bcd60e51b815260206004820152602260248201527f73657474696e6720696e7465726573742072617465206d6f64656c206661696c604482015261195960f21b6064820152608401620000f8565b8451620002c5906002906020880190620005e6565b508351620002db906003906020870190620005e6565b50506004805460ff90931660ff19938416179055600080549115156101000290921661ffff199091161760011790555050505050565b60045460009061010090046001600160a01b03163314620003455760405163d219dc1f60e01b815260040160405180910390fd5b60065460408051623f1ee960e11b815290516001600160a01b0392831692851691627e3dd29160048083019260209291908290030181865afa15801562000390573d6000803e3d6000fd5b505050506040513d601f19601f82011682018060405250810190620003b691906200084f565b620004045760405162461bcd60e51b815260206004820152601c60248201527f6d61726b6572206d6574686f642072657475726e65642066616c7365000000006044820152606401620000f8565b600680546001600160a01b0319166001600160a01b0385811691821790925560408051928416835260208301919091527f7ac369dbd14fa5ea3f473ed67cc9d598964a77501540ba6751eb0b3decf5870d91015b60405180910390a150600092915050565b600454600090819061010090046001600160a01b031633146200049f5760405163407fded560e01b815260040160405180910390fd5b43600a5414620004c257604051630be2a5cb60e11b815260040160405180910390fd5b600760009054906101000a90046001600160a01b03169050826001600160a01b0316632191f92a6040518163ffffffff1660e01b8152600401602060405180830381865afa15801562000519573d6000803e3d6000fd5b505050506040513d601f19601f820116820180604052508101906200053f91906200084f565b6200058d5760405162461bcd60e51b815260206004820152601c60248201527f6d61726b6572206d6574686f642072657475726e65642066616c7365000000006044820152606401620000f8565b600780546001600160a01b0319166001600160a01b0385811691821790925560408051928416835260208301919091527fedffc32e068c7c95dfd4bdfd5c4d939a084d6b11c4199eac8436ed234d72f926910162000458565b828054620005f4906200087a565b90600052602060002090601f01602090048101928262000618576000855562000663565b82601f106200063357805160ff191683800117855562000663565b8280016001018555821562000663579182015b828111156200066357825182559160200191906001019062000646565b506200067192915062000675565b5090565b5b8082111562000671576000815560010162000676565b6001600160a01b0381168114620006a257600080fd5b50565b634e487b7160e01b600052604160045260246000fd5b600082601f830112620006cd57600080fd5b81516001600160401b0380821115620006ea57620006ea620006a5565b604051601f8301601f19908116603f01168101908282118183101715620007155762000715620006a5565b816040528381526020925086838588010111156200073257600080fd5b600091505b8382101562000756578582018301518183018401529082019062000737565b83821115620007685760008385830101525b9695505050505050565b80516200077f816200068c565b919050565b600080600080600080600060e0888a031215620007a057600080fd5b8751620007ad816200068c565b6020890151909750620007c0816200068c565b604089015160608a015191975095506001600160401b0380821115620007e557600080fd5b620007f38b838c01620006bb565b955060808a01519150808211156200080a57600080fd5b50620008198a828b01620006bb565b93505060a088015160ff811681146200083157600080fd5b91506200084160c0890162000772565b905092959891949750929550565b6000602082840312156200086257600080fd5b815180151581146200087357600080fd5b9392505050565b600181811c908216806200088f57607f821691505b60208210811415620008b157634e487b7160e01b600052602260045260246000fd5b50919050565b61381780620008c76000396000f3fe6080604052600436106103395760003560e01c8063842e11eb116101ab578063c37f68e2116100f7578063f3fdb15a11610095578063fca7820b1161006f578063fca7820b14610948578063fcb6414714610968578063fe9c44ae14610970578063ff5a37641461098557600080fd5b8063f3fdb15a146108ee578063f851a4401461090e578063f8f9da281461093357600080fd5b8063dd62ed3e116100d1578063dd62ed3e14610860578063e5974619146108a6578063e9c714f2146108b9578063f2b3abbd146108ce57600080fd5b8063c37f68e2146107e0578063c5ebeaec14610820578063db006a751461084057600080fd5b8063a9059cbb11610164578063ae9d70b01161013e578063ae9d70b014610776578063b2a02ff11461078b578063b71d1a0c146107ab578063bd6d894d146107cb57600080fd5b8063a9059cbb1461072d578063aa5af0fd1461074d578063aae40a2a1461076357600080fd5b8063842e11eb1461068e578063852a12e3146106ad5780638f840ddd146106cd57806395d89b41146106e357806395dd9193146106f8578063a6afed951461071857600080fd5b80633f7a37d311610285578063601a0bf11161022357806369ab3250116101fd57806369ab3250146106185780636c540baf1461062d57806370a082311461064357806373acee981461067957600080fd5b8063601a0bf1146105b75780636752e702146105d757806368672231146105f257600080fd5b80634e4d9fea1161025f5780634e4d9fea1461054f5780635b30cf55146105575780635fe3b567146105775780635fe609db1461059757600080fd5b80633f7a37d3146104f95780634576b5db1461051957806347bd37181461053957600080fd5b8063182df0f5116102f2578063313ce567116102cc578063313ce5671461047857806336818b01146104a45780633af9e669146104c45780633b1d21a2146104e457600080fd5b8063182df0f51461040b57806323b872dd14610420578063267822471461044057600080fd5b806306fdde031461034e578063095ea7b3146103795780631249c58b146103a9578063173b9904146103b157806317bfdfbc146103d557806318160ddd146103f557600080fd5b3661034957610347346109a5565b005b600080fd5b34801561035a57600080fd5b506103636109fd565b6040516103709190613380565b60405180910390f35b34801561038557600080fd5b506103996103943660046133ea565b610a8b565b6040519015158152602001610370565b610347610af9565b3480156103bd57600080fd5b506103c760095481565b604051908152602001610370565b3480156103e157600080fd5b506103c76103f0366004613416565b610b04565b34801561040157600080fd5b506103c7600e5481565b34801561041757600080fd5b506103c7610b57565b34801561042c57600080fd5b5061039961043b366004613433565b610b66565b34801561044c57600080fd5b50600554610460906001600160a01b031681565b6040516001600160a01b039091168152602001610370565b34801561048457600080fd5b506004546104929060ff1681565b60405160ff9091168152602001610370565b3480156104b057600080fd5b506103c76104bf366004613416565b610bb6565b3480156104d057600080fd5b506103c76104df366004613416565b610c64565b3480156104f057600080fd5b506103c7610caa565b34801561050557600080fd5b506103c7610514366004613416565b610cb4565b34801561052557600080fd5b506103c7610534366004613416565b610d0d565b34801561054557600080fd5b506103c7600c5481565b610347610e5f565b34801561056357600080fd5b50600154610460906001600160a01b031681565b34801561058357600080fd5b50600654610460906001600160a01b031681565b3480156105a357600080fd5b506103476105b2366004613535565b610e68565b3480156105c357600080fd5b506103c76105d23660046135f1565b6110d2565b3480156105e357600080fd5b506103c7666379da05b6000081565b3480156105fe57600080fd5b50600054610460906201000090046001600160a01b031681565b34801561062457600080fd5b506103c7600081565b34801561063957600080fd5b506103c7600a5481565b34801561064f57600080fd5b506103c761065e366004613416565b6001600160a01b03166000908152600f602052604090205490565b34801561068557600080fd5b506103c7611111565b34801561069a57600080fd5b5060005461039990610100900460ff1681565b3480156106b957600080fd5b506103c76106c83660046135f1565b61115b565b3480156106d957600080fd5b506103c7600d5481565b3480156106ef57600080fd5b50610363611166565b34801561070457600080fd5b506103c7610713366004613416565b611173565b34801561072457600080fd5b506103c7611184565b34801561073957600080fd5b506103996107483660046133ea565b611422565b34801561075957600080fd5b506103c7600b5481565b61034761077136600461360a565b611471565b34801561078257600080fd5b506103c7611480565b34801561079757600080fd5b506103c76107a6366004613433565b611518565b3480156107b757600080fd5b506103c76107c6366004613416565b611567565b3480156107d757600080fd5b506103c76115f4565b3480156107ec57600080fd5b506108006107fb366004613416565b611644565b604080519485526020850193909352918301526060820152608001610370565b34801561082c57600080fd5b506103c761083b3660046135f1565b611685565b34801561084c57600080fd5b506103c761085b3660046135f1565b611690565b34801561086c57600080fd5b506103c761087b36600461360a565b6001600160a01b03918216600090815260106020908152604080832093909416825291909152205490565b6103476108b4366004613416565b61169b565b3480156108c557600080fd5b506103c76116a8565b3480156108da57600080fd5b506103c76108e9366004613416565b6117af565b3480156108fa57600080fd5b50600754610460906001600160a01b031681565b34801561091a57600080fd5b506004546104609061010090046001600160a01b031681565b34801561093f57600080fd5b506103c76117c3565b34801561095457600080fd5b506103c76109633660046135f1565b611816565b6103c7611855565b34801561097c57600080fd5b50610399600181565b34801561099157600080fd5b506103c76109a0366004613416565b611860565b60005460ff166109d05760405162461bcd60e51b81526004016109c790613643565b60405180910390fd5b6000805460ff191690556109e2611184565b506109ed33826118bf565b506000805460ff19166001179055565b60028054610a0a90613667565b80601f0160208091040260200160405190810160405280929190818152602001828054610a3690613667565b8015610a835780601f10610a5857610100808354040283529160200191610a83565b820191906000526020600020905b815481529060010190602001808311610a6657829003601f168201915b505050505081565b3360008181526010602090815260408083206001600160a01b03871680855292528083208590555191929182907f8c5be1e5ebec7d5bd14f71427d1e84f3dd0314c0f7b2291e5b200ac8c7c3b92590610ae79087815260200190565b60405180910390a35060019392505050565b610b02346109a5565b565b6000805460ff16610b275760405162461bcd60e51b81526004016109c790613643565b6000805460ff19169055610b39611184565b50610b4382611173565b90506000805460ff19166001179055919050565b6000610b61611a75565b905090565b6000805460ff16610b895760405162461bcd60e51b81526004016109c790613643565b6000805460ff19168155610b9f33868686611adf565b1490506000805460ff191660011790559392505050565b60045460009061010090046001600160a01b03163314610be957604051631f0fa4d560e31b815260040160405180910390fd5b610bf1611d0d565b610c5c5760005460405163ef9aacfd60e01b81526001600160a01b038481166004830152620100009092049091169063ef9aacfd90602401600060405180830381600087803b158015610c4357600080fd5b505af1158015610c57573d6000803e3d6000fd5b505050505b506000919050565b6000806040518060200160405280610c7a6115f4565b90526001600160a01b0384166000908152600f6020526040902054909150610ca3908290611d19565b9392505050565b6000610b61611d0d565b60045460009061010090046001600160a01b03163314610ce757604051634cfdce7760e11b815260040160405180910390fd5b50600180546001600160a01b0319166001600160a01b0392909216919091179055600090565b60045460009061010090046001600160a01b03163314610d405760405163d219dc1f60e01b815260040160405180910390fd5b60065460408051623f1ee960e11b815290516001600160a01b0392831692851691627e3dd29160048083019260209291908290030181865afa158015610d8a573d6000803e3d6000fd5b505050506040513d601f19601f82011682018060405250810190610dae919061369c565b610dfa5760405162461bcd60e51b815260206004820152601c60248201527f6d61726b6572206d6574686f642072657475726e65642066616c73650000000060448201526064016109c7565b600680546001600160a01b0319166001600160a01b0385811691821790925560408051928416835260208301919091527f7ac369dbd14fa5ea3f473ed67cc9d598964a77501540ba6751eb0b3decf5870d91015b60405180910390a150600092915050565b610b0234611d39565b60045461010090046001600160a01b03163314610ed35760405162461bcd60e51b8152602060048201526024808201527f6f6e6c792061646d696e206d617920696e697469616c697a6520746865206d616044820152631c9ad95d60e21b60648201526084016109c7565b600a54158015610ee35750600b54155b610f3b5760405162461bcd60e51b815260206004820152602360248201527f6d61726b6574206d6179206f6e6c7920626520696e697469616c697a6564206f6044820152626e636560e81b60648201526084016109c7565b600885905584610fa65760405162461bcd60e51b815260206004820152603060248201527f696e697469616c2065786368616e67652072617465206d75737420626520677260448201526f32b0ba32b9103a3430b7103d32b9379760811b60648201526084016109c7565b6000610fb188610d0d565b905080156110015760405162461bcd60e51b815260206004820152601a60248201527f73657474696e6720636f6d7074726f6c6c6572206661696c656400000000000060448201526064016109c7565b43600a55670de0b6b3a7640000600b5561101a87611d8a565b905080156110755760405162461bcd60e51b815260206004820152602260248201527f73657474696e6720696e7465726573742072617465206d6f64656c206661696c604482015261195960f21b60648201526084016109c7565b84516110889060029060208801906132f0565b50835161109c9060039060208701906132f0565b50506004805460ff90931660ff19938416179055600080549115156101000290921661ffff199091161760011790555050505050565b6000805460ff166110f55760405162461bcd60e51b81526004016109c790613643565b6000805460ff19169055611107611184565b50610b4382611eff565b6000805460ff166111345760405162461bcd60e51b81526004016109c790613643565b6000805460ff19169055611146611184565b5050600c546000805460ff1916600117905590565b6000610c5c8261201a565b60038054610a0a90613667565b600061117e8261205b565b92915050565b600a5460009043908082141561119d5760009250505090565b60006111a7611d0d565b600c54600d54600b546007546040516315f2405360e01b81526004810186905260248101859052604481018490529495509293919290916000916001600160a01b0316906315f2405390606401602060405180830381865afa158015611211573d6000803e3d6000fd5b505050506040513d601f19601f8201168201806040525081019061123591906136b9565b905065048c2739500081111561128d5760405162461bcd60e51b815260206004820152601c60248201527f626f72726f772072617465206973206162737572646c7920686967680000000060448201526064016109c7565b600061129987896136e8565b905060006112b5604051806020016040528085815250836120a5565b905060006112c38288611d19565b905060006112d188836136ff565b905060006112f06040518060200160405280600954815250848a6120d6565b905060006112ff85898a6120d6565b600a8e9055600b819055600c849055600d839055600054909150610100900460ff16801561132f57506000600e54115b156113c6576000805460405163185b800160e11b8152600160048201819052602482018490526044820181905260648201939093526084810183905260a4810183905260c48101929092526201000090046001600160a01b0316906330b700029060e401600060405180830381600087803b1580156113ad57600080fd5b505af11580156113c1573d6000803e3d6000fd5b505050505b604080518c815260208101869052908101829052606081018490527f4dec04e750ca11537cabcd8a9eab06494de08da3735bc8871cd41250e190bc049060800160405180910390a160009d505050505050505050505050505090565b6000805460ff166114455760405162461bcd60e51b81526004016109c790613643565b6000805460ff1916815561145b33808686611adf565b1490506000805460ff1916600117905592915050565b61147c8234836120f7565b5050565b6007546000906001600160a01b031663b816881661149c611d0d565b600c54600d546009546040516001600160e01b031960e087901b16815260048101949094526024840192909252604483015260648201526084015b602060405180830381865afa1580156114f4573d6000803e3d6000fd5b505050506040513d601f19601f82011682018060405250810190610b6191906136b9565b6000805460ff1661153b5760405162461bcd60e51b81526004016109c790613643565b6000805460ff19169055611551338585856121d5565b50600080805460ff191660011790559392505050565b60045460009061010090046001600160a01b0316331461159a57604051635cb56c2b60e01b815260040160405180910390fd5b600580546001600160a01b038481166001600160a01b031983168117909355604080519190921680825260208201939093527fca4f2f25d0898edd99413412fb94012f9e54ec8142f9b093e7720646a95b16a99101610e4e565b6000805460ff166116175760405162461bcd60e51b81526004016109c790613643565b6000805460ff19169055611629611184565b50611632610b57565b90506000805460ff1916600117905590565b6001600160a01b0381166000908152600f6020526040812054819081908190819061166e8761205b565b611676611a75565b93509350935093509193509193565b6000610c5c8261244e565b6000610c5c8261248d565b6116a581346124ce565b50565b6005546000906001600160a01b0316331415806116c3575033155b156116e157604051631ba24f2960e21b815260040160405180910390fd5b60048054600580546001600160a01b03808216610100818102610100600160a81b0319871617968790556001600160a01b031990931690935560408051948390048216808652929095041660208401529290917ff9ffabca9c8276e99321725bcb43fb076a6c66a54b7f21c4e8146d8519b417dc910160405180910390a1600554604080516001600160a01b03808516825290921660208301527fca4f2f25d0898edd99413412fb94012f9e54ec8142f9b093e7720646a95b16a9910160405180910390a160009250505090565b60006117b9611184565b5061117e82611d8a565b6007546000906001600160a01b03166315f240536117df611d0d565b600c54600d546040516001600160e01b031960e086901b1681526004810193909352602483019190915260448201526064016114d7565b6000805460ff166118395760405162461bcd60e51b81526004016109c790613643565b6000805460ff1916905561184b611184565b50610b4382612520565b6000610b61346125dc565b60045460009061010090046001600160a01b03163314611893576040516308d5a31960e21b815260040160405180910390fd5b50600080546001600160a01b03909216620100000262010000600160b01b031990921691909117815590565b600654604051634ef4c3e160e01b81526000916001600160a01b031690634ef4c3e1906118f490309087908790600401613717565b6020604051808303816000875af1158015611913573d6000803e3d6000fd5b505050506040513d601f19601f8201168201806040525081019061193791906136b9565b9050801561195b576040516349abd4fd60e01b8152600481018290526024016109c7565b43600a541461197d576040516338d8859760e01b815260040160405180910390fd5b60006040518060200160405280611992611a75565b9052905060006119a28585612633565b905060006119b082846126c5565b905080600e546119c091906136ff565b600e556001600160a01b0386166000908152600f60205260409020546119e79082906136ff565b6001600160a01b0387166000908152600f60205260409081902091909155517f4c209b5fc8ad50758f13e2e1088ba56a560dff690a1c6fef26394f4c03821c4f90611a379088908590859061373b565b60405180910390a16040518181526001600160a01b0387169030906000805160206137c28339815191529060200160405180910390a3505050505050565b600e5460009080611a8857505060085490565b6000611a92611d0d565b90506000600d54600c5483611aa791906136ff565b611ab191906136e8565b9050600083611ac8670de0b6b3a76400008461375c565b611ad2919061377b565b95945050505050565b5090565b6006546040516317b9b84b60e31b81523060048201526001600160a01b038581166024830152848116604483015260648201849052600092839291169063bdcdc258906084016020604051808303816000875af1158015611b44573d6000803e3d6000fd5b505050506040513d601f19601f82011682018060405250810190611b6891906136b9565b90508015611b8c5760405163089d427760e11b8152600481018290526024016109c7565b836001600160a01b0316856001600160a01b03161415611bbf57604051638cd22d1960e01b815260040160405180910390fd5b6000856001600160a01b0316876001600160a01b03161415611be45750600019611c0c565b506001600160a01b038086166000908152601060209081526040808320938a16835292905220545b6000611c1885836136e8565b6001600160a01b0388166000908152600f602052604081205491925090611c409087906136e8565b6001600160a01b0388166000908152600f602052604081205491925090611c689088906136ff565b6001600160a01b03808b166000908152600f6020526040808220869055918b1681522081905590506000198414611cc2576001600160a01b03808a166000908152601060209081526040808320938e168352929052208390555b876001600160a01b0316896001600160a01b03166000805160206137c283398151915289604051611cf591815260200190565b60405180910390a35060009998505050505050505050565b6000610b6134476136e8565b600080611d2684846120a5565b9050611d31816126e3565b949350505050565b60005460ff16611d5b5760405162461bcd60e51b81526004016109c790613643565b6000805460ff19169055611d6d611184565b50611d793333836126fb565b50506000805460ff19166001179055565b600454600090819061010090046001600160a01b03163314611dbf5760405163407fded560e01b815260040160405180910390fd5b43600a5414611de157604051630be2a5cb60e11b815260040160405180910390fd5b600760009054906101000a90046001600160a01b03169050826001600160a01b0316632191f92a6040518163ffffffff1660e01b8152600401602060405180830381865afa158015611e37573d6000803e3d6000fd5b505050506040513d601f19601f82011682018060405250810190611e5b919061369c565b611ea75760405162461bcd60e51b815260206004820152601c60248201527f6d61726b6572206d6574686f642072657475726e65642066616c73650000000060448201526064016109c7565b600780546001600160a01b0319166001600160a01b0385811691821790925560408051928416835260208301919091527fedffc32e068c7c95dfd4bdfd5c4d939a084d6b11c4199eac8436ed234d72f9269101610e4e565b600454600090819061010090046001600160a01b03163314611f3457604051630f7e5e6d60e41b815260040160405180910390fd5b43600a5414611f5657604051630dff50cb60e41b815260040160405180910390fd5b82611f5f611d0d565b1015611f7e57604051633345e99960e01b815260040160405180910390fd5b600d54831115611fa1576040516378d2980560e11b815260040160405180910390fd5b82600d54611faf91906136e8565b600d819055600454909150611fd29061010090046001600160a01b0316846128a4565b7f3bad0c59cf2f06e7314077049f48a93578cd16f5ef92329f1dab1420a99c177e600460019054906101000a90046001600160a01b03168483604051610e4e9392919061373b565b60005460ff1661203c5760405162461bcd60e51b81526004016109c790613643565b6000805460ff1916905561204e611184565b506109ed336000836128df565b6001600160a01b038116600090815260116020526040812080546120825750600092915050565b600b5481546000916120939161375c565b9050816001015481611d31919061377b565b60408051602081019091526000815260405180602001604052806120cd856000015185612bbc565b90529392505050565b6000806120e385856120a5565b9050611ad26120f1826126e3565b84612bc8565b60005460ff166121195760405162461bcd60e51b81526004016109c790613643565b6000805460ff1916905561212b611184565b506000816001600160a01b031663a6afed956040518163ffffffff1660e01b81526004016020604051808303816000875af115801561216e573d6000803e3d6000fd5b505050506040513d601f19601f8201168201806040525081019061219291906136b9565b905080156121b657604051633eea49b760e11b8152600481018290526024016109c7565b6121c233858585612bd4565b50506000805460ff191660011790555050565b60065460405163d02f735160e01b81523060048201526001600160a01b0386811660248301528581166044830152848116606483015260848201849052600092169063d02f73519060a4016020604051808303816000875af115801561223f573d6000803e3d6000fd5b505050506040513d601f19601f8201168201806040525081019061226391906136b9565b90508015612287576040516363e00e3360e11b8152600481018290526024016109c7565b836001600160a01b0316836001600160a01b031614156122ba57604051633a94626760e11b815260040160405180910390fd5b60006122db836040518060200160405280666379da05b6000081525061308e565b905060006122e982856136e8565b905060006040518060200160405280612300611a75565b9052905060006123108285611d19565b9050600081600d5461232291906136ff565b600d819055600e549091506123389086906136e8565b600e556001600160a01b0388166000908152600f602052604090205461235f9088906136e8565b6001600160a01b03808a166000908152600f602052604080822093909355908b168152205461238f9085906136ff565b6001600160a01b03808b166000818152600f602052604090819020939093559151908a16906000805160206137c2833981519152906123d19088815260200190565b60405180910390a360405185815230906001600160a01b038a16906000805160206137c28339815191529060200160405180910390a37fa91e67c5ea634cd43a12c5a482724b03de01e85ca68702a53d0c2f45cb7c1dc530838360405161243a9392919061373b565b60405180910390a150505050505050505050565b60005460ff166124705760405162461bcd60e51b81526004016109c790613643565b6000805460ff19169055612482611184565b506109ed33826130b1565b60005460ff166124af5760405162461bcd60e51b81526004016109c790613643565b6000805460ff191690556124c1611184565b506109ed338260006128df565b60005460ff166124f05760405162461bcd60e51b81526004016109c790613643565b6000805460ff19169055612502611184565b5061250e3383836126fb565b50506000805460ff1916600117905550565b60045460009061010090046001600160a01b0316331461255357604051631205b57b60e11b815260040160405180910390fd5b43600a541461257557604051637dfca6b760e11b815260040160405180910390fd5b670de0b6b3a764000082111561259e5760405163717220f360e11b815260040160405180910390fd5b600980549083905560408051828152602081018590527faaa68312e2ea9d50e16af5068410ab56e1a1fd06037b1a35664812c30f8214609101610e4e565b6000805460ff166125ff5760405162461bcd60e51b81526004016109c790613643565b6000805460ff19169055612611611184565b5061261b82613250565b5050600090506000805460ff19166001179055919050565b6000336001600160a01b0384161461267f5760405162461bcd60e51b815260206004820152600f60248201526e0e6cadcc8cae440dad2e6dac2e8c6d608b1b60448201526064016109c7565b8134146126bf5760405162461bcd60e51b815260206004820152600e60248201526d0ecc2d8eaca40dad2e6dac2e8c6d60931b60448201526064016109c7565b50919050565b6000610ca36126dc84670de0b6b3a7640000612bbc565b83516132e4565b805160009061117e90670de0b6b3a76400009061377b565b600654604051631200453160e11b81523060048201526001600160a01b03858116602483015284811660448301526064820184905260009283929116906324008a62906084016020604051808303816000875af1158015612760573d6000803e3d6000fd5b505050506040513d601f19601f8201168201806040525081019061278491906136b9565b905080156127a857604051638c81362d60e01b8152600481018290526024016109c7565b43600a54146127ca5760405163c9021e2f60e01b815260040160405180910390fd5b60006127d58561205b565b9050600060001985146127e857846127ea565b815b905060006127f88883612633565b9050600061280682856136e8565b9050600082600c5461281891906136e8565b6001600160a01b038a8116600081815260116020908152604091829020878155600b54600190910155600c8590558151938f168452830191909152810185905260608101849052608081018290529091507f1a2a22cb034d26d1854bdc6666a5b91fe25efbbb5dcad3b0355478d6f5c362a19060a00160405180910390a1509098975050505050505050565b6040516001600160a01b0383169082156108fc029083906000818181858888f193505050501580156128da573d6000803e3d6000fd5b505050565b8115806128ea575080155b6129535760405162461bcd60e51b815260206004820152603460248201527f6f6e65206f662072656465656d546f6b656e73496e206f722072656465656d416044820152736d6f756e74496e206d757374206265207a65726f60601b60648201526084016109c7565b60006040518060200160405280612968611a75565b905290506000808415612989578491506129828386611d19565b9050612999565b61299384846126c5565b91508390505b60065460405163eabe7d9160e01b81526000916001600160a01b03169063eabe7d91906129ce9030908b908890600401613717565b6020604051808303816000875af11580156129ed573d6000803e3d6000fd5b505050506040513d601f19601f82011682018060405250810190612a1191906136b9565b90508015612a355760405163480f424760e01b8152600481018290526024016109c7565b43600a5414612a57576040516397b5cfcd60e01b815260040160405180910390fd5b81612a60611d0d565b1015612a7f576040516391240a1b60e01b815260040160405180910390fd5b82600e54612a8d91906136e8565b600e556001600160a01b0387166000908152600f6020526040902054612ab49084906136e8565b6001600160a01b0388166000908152600f6020526040902055612ad787836128a4565b60405183815230906001600160a01b038916906000805160206137c28339815191529060200160405180910390a37fe5b754fb1abb7f01b499791d0b820ae3b6af3424ac1c59768edb53f4ec31a929878385604051612b389392919061373b565b60405180910390a16006546040516351dff98960e01b81523060048201526001600160a01b0389811660248301526044820185905260648201869052909116906351dff98990608401600060405180830381600087803b158015612b9b57600080fd5b505af1158015612baf573d6000803e3d6000fd5b5050505050505050505050565b6000610ca3828461375c565b6000610ca382846136ff565b600654604051632fe3f38f60e11b81523060048201526001600160a01b03838116602483015286811660448301528581166064830152608482018590526000921690635fc7e71e9060a4016020604051808303816000875af1158015612c3e573d6000803e3d6000fd5b505050506040513d601f19601f82011682018060405250810190612c6291906136b9565b90508015612c8657604051630a14d17960e11b8152600481018290526024016109c7565b43600a5414612ca8576040516380965b1b60e01b815260040160405180910390fd5b43826001600160a01b0316636c540baf6040518163ffffffff1660e01b8152600401602060405180830381865afa158015612ce7573d6000803e3d6000fd5b505050506040513d601f19601f82011682018060405250810190612d0b91906136b9565b14612d2957604051631046f38d60e31b815260040160405180910390fd5b846001600160a01b0316846001600160a01b03161415612d5c57604051631bd1a62160e21b815260040160405180910390fd5b82612d7a5760405163d29da7ef60e01b815260040160405180910390fd5b600019831415612d9d57604051635982c5bb60e11b815260040160405180910390fd5b6000612daa8686866126fb565b60065460405163c488847b60e01b815291925060009182916001600160a01b03169063c488847b90612de490309089908890600401613717565b6040805180830381865afa158015612e00573d6000803e3d6000fd5b505050506040513d601f19601f82011682018060405250810190612e24919061379d565b9150915060008214612e945760405162461bcd60e51b815260206004820152603360248201527f4c49515549444154455f434f4d5054524f4c4c45525f43414c43554c4154455f604482015272105353d5539517d4d152569157d19052531151606a1b60648201526084016109c7565b6040516370a0823160e01b81526001600160a01b0388811660048301528291908716906370a0823190602401602060405180830381865afa158015612edd573d6000803e3d6000fd5b505050506040513d601f19601f82011682018060405250810190612f0191906136b9565b1015612f4f5760405162461bcd60e51b815260206004820152601860248201527f4c49515549444154455f5345495a455f544f4f5f4d554348000000000000000060448201526064016109c7565b6001600160a01b038516301415612f7157612f6c308989846121d5565b61302b565b60405163b2a02ff160e01b81526000906001600160a01b0387169063b2a02ff190612fa4908c908c908790600401613717565b6020604051808303816000875af1158015612fc3573d6000803e3d6000fd5b505050506040513d601f19601f82011682018060405250810190612fe791906136b9565b1461302b5760405162461bcd60e51b81526020600482015260146024820152731d1bdad95b881cd95a5e9d5c994819985a5b195960621b60448201526064016109c7565b604080516001600160a01b038a811682528981166020830152818301869052871660608201526080810183905290517f298637f684da70674f26509b10f07ec2fbc77a335ab1e7d6215a4b2484d8bb529181900360a00190a15050505050505050565b6000670de0b6b3a76400006130a7848460000151612bbc565b610ca3919061377b565b60065460405163368f515360e21b81526000916001600160a01b03169063da3d454c906130e690309087908790600401613717565b6020604051808303816000875af1158015613105573d6000803e3d6000fd5b505050506040513d601f19601f8201168201806040525081019061312991906136b9565b9050801561314d5760405163918db40f60e01b8152600481018290526024016109c7565b43600a541461316f57604051630e8d8c6160e21b815260040160405180910390fd5b81613178611d0d565b1015613197576040516348c2588160e01b815260040160405180910390fd5b60006131a28461205b565b905060006131b084836136ff565b9050600084600c546131c291906136ff565b6001600160a01b0387166000908152601160205260409020838155600b54600190910155600c81905590506131f786866128a4565b604080516001600160a01b038816815260208101879052908101839052606081018290527f13ed6866d4e1ee6da46f845c46d7e54120883d75c5ea9a2dacc1c4ca8984ab809060800160405180910390a1505050505050565b600080808043600a541461327a576040516338acf79960e01b8152600481018290526024016109c7565b6132843386612633565b905080600d5461329491906136ff565b915081600d819055507fa91e67c5ea634cd43a12c5a482724b03de01e85ca68702a53d0c2f45cb7c1dc53382846040516132d09392919061373b565b60405180910390a160009590945092505050565b6000610ca3828461377b565b8280546132fc90613667565b90600052602060002090601f01602090048101928261331e5760008555613364565b82601f1061333757805160ff1916838001178555613364565b82800160010185558215613364579182015b82811115613364578251825591602001919060010190613349565b50611adb9291505b80821115611adb576000815560010161336c565b600060208083528351808285015260005b818110156133ad57858101830151858201604001528201613391565b818111156133bf576000604083870101525b50601f01601f1916929092016040019392505050565b6001600160a01b03811681146116a557600080fd5b600080604083850312156133fd57600080fd5b8235613408816133d5565b946020939093013593505050565b60006020828403121561342857600080fd5b8135610ca3816133d5565b60008060006060848603121561344857600080fd5b8335613453816133d5565b92506020840135613463816133d5565b929592945050506040919091013590565b634e487b7160e01b600052604160045260246000fd5b600082601f83011261349b57600080fd5b813567ffffffffffffffff808211156134b6576134b6613474565b604051601f8301601f19908116603f011681019082821181831017156134de576134de613474565b816040528381528660208588010111156134f757600080fd5b836020870160208301376000602085830101528094505050505092915050565b80151581146116a557600080fd5b803561353081613517565b919050565b600080600080600080600060e0888a03121561355057600080fd5b873561355b816133d5565b9650602088013561356b816133d5565b955060408801359450606088013567ffffffffffffffff8082111561358f57600080fd5b61359b8b838c0161348a565b955060808a01359150808211156135b157600080fd5b506135be8a828b0161348a565b93505060a088013560ff811681146135d557600080fd5b91506135e360c08901613525565b905092959891949750929550565b60006020828403121561360357600080fd5b5035919050565b6000806040838503121561361d57600080fd5b8235613628816133d5565b91506020830135613638816133d5565b809150509250929050565b6020808252600a90820152691c994b595b9d195c995960b21b604082015260600190565b600181811c9082168061367b57607f821691505b602082108114156126bf57634e487b7160e01b600052602260045260246000fd5b6000602082840312156136ae57600080fd5b8151610ca381613517565b6000602082840312156136cb57600080fd5b5051919050565b634e487b7160e01b600052601160045260246000fd5b6000828210156136fa576136fa6136d2565b500390565b60008219821115613712576137126136d2565b500190565b6001600160a01b039384168152919092166020820152604081019190915260600190565b6001600160a01b039390931683526020830191909152604082015260600190565b6000816000190483118215151615613776576137766136d2565b500290565b60008261379857634e487b7160e01b600052601260045260246000fd5b500490565b600080604083850312156137b057600080fd5b50508051602090910151909290915056feddf252ad1be2c89b69c2b068fc378daa952ba7f163c4a11628f55a4df523b3efa264697066735822122031c7878d4f248da582abbee38aa7ce9581a5566b751dfb1aec1adfa560a8d3ff64736f6c634300080a0033",
  "linkReferences": {},
  "deployedLinkReferences": {}
}